{
    "_format": "hh-sol-artifact-1",
    "contractName": "AlbumNFT",
    "sourceName": "contracts/AlbumNFT.sol",
    "abi": [
        {
            "inputs": [
                {
                    "internalType": "string",
                    "name": "_name",
                    "type": "string"
                },
                {
                    "internalType": "string",
                    "name": "_symbol",
                    "type": "string"
                }
            ],
            "stateMutability": "nonpayable",
            "type": "constructor"
        },
        {
            "anonymous": false,
            "inputs": [
                {
                    "indexed": true,
                    "internalType": "address",
                    "name": "owner",
                    "type": "address"
                },
                {
                    "indexed": true,
                    "internalType": "address",
                    "name": "approved",
                    "type": "address"
                },
                {
                    "indexed": true,
                    "internalType": "uint256",
                    "name": "tokenId",
                    "type": "uint256"
                }
            ],
            "name": "Approval",
            "type": "event"
        },
        {
            "anonymous": false,
            "inputs": [
                {
                    "indexed": true,
                    "internalType": "address",
                    "name": "owner",
                    "type": "address"
                },
                {
                    "indexed": true,
                    "internalType": "address",
                    "name": "operator",
                    "type": "address"
                },
                {
                    "indexed": false,
                    "internalType": "bool",
                    "name": "approved",
                    "type": "bool"
                }
            ],
            "name": "ApprovalForAll",
            "type": "event"
        },
        {
            "anonymous": false,
            "inputs": [
                {
                    "indexed": false,
                    "internalType": "uint256",
                    "name": "_fromTokenId",
                    "type": "uint256"
                },
                {
                    "indexed": false,
                    "internalType": "uint256",
                    "name": "_toTokenId",
                    "type": "uint256"
                }
            ],
            "name": "BatchMetadataUpdate",
            "type": "event"
        },
        {
            "anonymous": false,
            "inputs": [
                {
                    "indexed": false,
                    "internalType": "uint256",
                    "name": "_tokenId",
                    "type": "uint256"
                }
            ],
            "name": "MetadataUpdate",
            "type": "event"
        },
        {
            "anonymous": false,
            "inputs": [
                {
                    "indexed": true,
                    "internalType": "address",
                    "name": "_artist",
                    "type": "address"
                },
                {
                    "indexed": true,
                    "internalType": "uint256",
                    "name": "_tokenId",
                    "type": "uint256"
                },
                {
                    "indexed": false,
                    "internalType": "string",
                    "name": "_tokenUri",
                    "type": "string"
                }
            ],
            "name": "NewSongMinted",
            "type": "event"
        },
        {
            "anonymous": false,
            "inputs": [
                {
                    "indexed": true,
                    "internalType": "address",
                    "name": "from",
                    "type": "address"
                },
                {
                    "indexed": true,
                    "internalType": "address",
                    "name": "to",
                    "type": "address"
                },
                {
                    "indexed": true,
                    "internalType": "uint256",
                    "name": "tokenId",
                    "type": "uint256"
                }
            ],
            "name": "Transfer",
            "type": "event"
        },
        {
            "inputs": [],
            "name": "_trackCount",
            "outputs": [
                {
                    "internalType": "uint256",
                    "name": "",
                    "type": "uint256"
                }
            ],
            "stateMutability": "view",
            "type": "function"
        },
        {
            "inputs": [
                {
                    "internalType": "uint256",
                    "name": "",
                    "type": "uint256"
                }
            ],
            "name": "allSongs",
            "outputs": [
                {
                    "internalType": "uint256",
                    "name": "tokenId",
                    "type": "uint256"
                },
                {
                    "internalType": "address",
                    "name": "creator",
                    "type": "address"
                },
                {
                    "internalType": "string",
                    "name": "name",
                    "type": "string"
                },
                {
                    "internalType": "enum AlbumNFT.SongStatus",
                    "name": "currentStatus",
                    "type": "uint8"
                }
            ],
            "stateMutability": "view",
            "type": "function"
        },
        {
            "inputs": [
                {
                    "internalType": "address",
                    "name": "to",
                    "type": "address"
                },
                {
                    "internalType": "uint256",
                    "name": "tokenId",
                    "type": "uint256"
                }
            ],
            "name": "approve",
            "outputs": [],
            "stateMutability": "nonpayable",
            "type": "function"
        },
        {
            "inputs": [],
            "name": "artist",
            "outputs": [
                {
                    "internalType": "address",
                    "name": "",
                    "type": "address"
                }
            ],
            "stateMutability": "view",
            "type": "function"
        },
        {
            "inputs": [
                {
                    "internalType": "address",
                    "name": "owner",
                    "type": "address"
                }
            ],
            "name": "balanceOf",
            "outputs": [
                {
                    "internalType": "uint256",
                    "name": "",
                    "type": "uint256"
                }
            ],
            "stateMutability": "view",
            "type": "function"
        },
        {
            "inputs": [
                {
                    "internalType": "uint256",
                    "name": "songNum",
                    "type": "uint256"
                },
                {
                    "internalType": "uint256",
                    "name": "status",
                    "type": "uint256"
                }
            ],
            "name": "changeSongStatus",
            "outputs": [
                {
                    "components": [
                        {
                            "internalType": "uint256",
                            "name": "tokenId",
                            "type": "uint256"
                        },
                        {
                            "internalType": "address",
                            "name": "creator",
                            "type": "address"
                        },
                        {
                            "internalType": "string",
                            "name": "name",
                            "type": "string"
                        },
                        {
                            "internalType": "enum AlbumNFT.SongStatus",
                            "name": "currentStatus",
                            "type": "uint8"
                        }
                    ],
                    "internalType": "struct AlbumNFT.Song",
                    "name": "",
                    "type": "tuple"
                }
            ],
            "stateMutability": "nonpayable",
            "type": "function"
        },
        {
            "inputs": [
                {
                    "internalType": "string",
                    "name": "_name",
                    "type": "string"
                },
                {
                    "internalType": "string",
                    "name": "tokenUri",
                    "type": "string"
                }
            ],
            "name": "createSong",
            "outputs": [
                {
                    "internalType": "uint256",
                    "name": "",
                    "type": "uint256"
                }
            ],
            "stateMutability": "nonpayable",
            "type": "function"
        },
        {
            "inputs": [],
            "name": "finishAlbum",
            "outputs": [
                {
                    "internalType": "bool",
                    "name": "",
                    "type": "bool"
                }
            ],
            "stateMutability": "nonpayable",
            "type": "function"
        },
        {
            "inputs": [],
            "name": "finished",
            "outputs": [
                {
                    "internalType": "bool",
                    "name": "",
                    "type": "bool"
                }
            ],
            "stateMutability": "view",
            "type": "function"
        },
        {
            "inputs": [
                {
                    "internalType": "uint256",
                    "name": "tokenId",
                    "type": "uint256"
                }
            ],
            "name": "getApproved",
            "outputs": [
                {
                    "internalType": "address",
                    "name": "",
                    "type": "address"
                }
            ],
            "stateMutability": "view",
            "type": "function"
        },
        {
            "inputs": [],
            "name": "getTokenCount",
            "outputs": [
                {
                    "internalType": "uint256",
                    "name": "",
                    "type": "uint256"
                }
            ],
            "stateMutability": "view",
            "type": "function"
        },
        {
            "inputs": [
                {
                    "internalType": "address",
                    "name": "owner",
                    "type": "address"
                },
                {
                    "internalType": "address",
                    "name": "operator",
                    "type": "address"
                }
            ],
            "name": "isApprovedForAll",
            "outputs": [
                {
                    "internalType": "bool",
                    "name": "",
                    "type": "bool"
                }
            ],
            "stateMutability": "view",
            "type": "function"
        },
        {
            "inputs": [],
            "name": "name",
            "outputs": [
                {
                    "internalType": "string",
                    "name": "",
                    "type": "string"
                }
            ],
            "stateMutability": "view",
            "type": "function"
        },
        {
            "inputs": [
                {
                    "internalType": "uint256",
                    "name": "tokenId",
                    "type": "uint256"
                }
            ],
            "name": "ownerOf",
            "outputs": [
                {
                    "internalType": "address",
                    "name": "",
                    "type": "address"
                }
            ],
            "stateMutability": "view",
            "type": "function"
        },
        {
            "inputs": [
                {
                    "internalType": "uint256",
                    "name": "songNum",
                    "type": "uint256"
                }
            ],
            "name": "removeSong",
            "outputs": [
                {
                    "components": [
                        {
                            "internalType": "uint256",
                            "name": "tokenId",
                            "type": "uint256"
                        },
                        {
                            "internalType": "address",
                            "name": "creator",
                            "type": "address"
                        },
                        {
                            "internalType": "string",
                            "name": "name",
                            "type": "string"
                        },
                        {
                            "internalType": "enum AlbumNFT.SongStatus",
                            "name": "currentStatus",
                            "type": "uint8"
                        }
                    ],
                    "internalType": "struct AlbumNFT.Song",
                    "name": "",
                    "type": "tuple"
                }
            ],
            "stateMutability": "nonpayable",
            "type": "function"
        },
        {
            "inputs": [
                {
                    "internalType": "address",
                    "name": "from",
                    "type": "address"
                },
                {
                    "internalType": "address",
                    "name": "to",
                    "type": "address"
                },
                {
                    "internalType": "uint256",
                    "name": "tokenId",
                    "type": "uint256"
                }
            ],
            "name": "safeTransferFrom",
            "outputs": [],
            "stateMutability": "nonpayable",
            "type": "function"
        },
        {
            "inputs": [
                {
                    "internalType": "address",
                    "name": "from",
                    "type": "address"
                },
                {
                    "internalType": "address",
                    "name": "to",
                    "type": "address"
                },
                {
                    "internalType": "uint256",
                    "name": "tokenId",
                    "type": "uint256"
                },
                {
                    "internalType": "bytes",
                    "name": "data",
                    "type": "bytes"
                }
            ],
            "name": "safeTransferFrom",
            "outputs": [],
            "stateMutability": "nonpayable",
            "type": "function"
        },
        {
            "inputs": [
                {
                    "internalType": "address",
                    "name": "operator",
                    "type": "address"
                },
                {
                    "internalType": "bool",
                    "name": "approved",
                    "type": "bool"
                }
            ],
            "name": "setApprovalForAll",
            "outputs": [],
            "stateMutability": "nonpayable",
            "type": "function"
        },
        {
            "inputs": [
                {
                    "internalType": "uint256",
                    "name": "songNum",
                    "type": "uint256"
                },
                {
                    "internalType": "uint256",
                    "name": "trackSpot",
                    "type": "uint256"
                }
            ],
            "name": "setSongToTrackList",
            "outputs": [
                {
                    "internalType": "bool",
                    "name": "",
                    "type": "bool"
                }
            ],
            "stateMutability": "nonpayable",
            "type": "function"
        },
        {
            "inputs": [
                {
                    "internalType": "bytes4",
                    "name": "interfaceId",
                    "type": "bytes4"
                }
            ],
            "name": "supportsInterface",
            "outputs": [
                {
                    "internalType": "bool",
                    "name": "",
                    "type": "bool"
                }
            ],
            "stateMutability": "view",
            "type": "function"
        },
        {
            "inputs": [],
            "name": "symbol",
            "outputs": [
                {
                    "internalType": "string",
                    "name": "",
                    "type": "string"
                }
            ],
            "stateMutability": "view",
            "type": "function"
        },
        {
            "inputs": [
                {
                    "internalType": "uint256",
                    "name": "tokenId",
                    "type": "uint256"
                }
            ],
            "name": "tokenURI",
            "outputs": [
                {
                    "internalType": "string",
                    "name": "",
                    "type": "string"
                }
            ],
            "stateMutability": "view",
            "type": "function"
        },
        {
            "inputs": [
                {
                    "internalType": "uint256",
                    "name": "",
                    "type": "uint256"
                }
            ],
            "name": "trackList",
            "outputs": [
                {
                    "internalType": "uint256",
                    "name": "tokenId",
                    "type": "uint256"
                },
                {
                    "internalType": "address",
                    "name": "creator",
                    "type": "address"
                },
                {
                    "internalType": "string",
                    "name": "name",
                    "type": "string"
                },
                {
                    "internalType": "enum AlbumNFT.SongStatus",
                    "name": "currentStatus",
                    "type": "uint8"
                }
            ],
            "stateMutability": "view",
            "type": "function"
        },
        {
            "inputs": [
                {
                    "internalType": "address",
                    "name": "from",
                    "type": "address"
                },
                {
                    "internalType": "address",
                    "name": "to",
                    "type": "address"
                },
                {
                    "internalType": "uint256",
                    "name": "tokenId",
                    "type": "uint256"
                }
            ],
            "name": "transferFrom",
            "outputs": [],
            "stateMutability": "nonpayable",
            "type": "function"
        }
    ],
    "bytecode": "0x60806040523480156200001157600080fd5b50604051620045e4380380620045e483398181016040528101906200003791906200023b565b818181600090816200004a91906200050b565b5080600190816200005c91906200050b565b50505032600760016101000a81548173ffffffffffffffffffffffffffffffffffffffff021916908373ffffffffffffffffffffffffffffffffffffffff1602179055505050620005f2565b6000604051905090565b600080fd5b600080fd5b600080fd5b600080fd5b6000601f19601f8301169050919050565b7f4e487b7100000000000000000000000000000000000000000000000000000000600052604160045260246000fd5b6200011182620000c6565b810181811067ffffffffffffffff82111715620001335762000132620000d7565b5b80604052505050565b600062000148620000a8565b905062000156828262000106565b919050565b600067ffffffffffffffff821115620001795762000178620000d7565b5b6200018482620000c6565b9050602081019050919050565b60005b83811015620001b157808201518184015260208101905062000194565b60008484015250505050565b6000620001d4620001ce846200015b565b6200013c565b905082815260208101848484011115620001f357620001f2620000c1565b5b6200020084828562000191565b509392505050565b600082601f83011262000220576200021f620000bc565b5b815162000232848260208601620001bd565b91505092915050565b60008060408385031215620002555762000254620000b2565b5b600083015167ffffffffffffffff811115620002765762000275620000b7565b5b620002848582860162000208565b925050602083015167ffffffffffffffff811115620002a857620002a7620000b7565b5b620002b68582860162000208565b9150509250929050565b600081519050919050565b7f4e487b7100000000000000000000000000000000000000000000000000000000600052602260045260246000fd5b600060028204905060018216806200031357607f821691505b602082108103620003295762000328620002cb565b5b50919050565b60008190508160005260206000209050919050565b60006020601f8301049050919050565b600082821b905092915050565b600060088302620003937fffffffffffffffffffffffffffffffffffffffffffffffffffffffffffffffff8262000354565b6200039f868362000354565b95508019841693508086168417925050509392505050565b6000819050919050565b6000819050919050565b6000620003ec620003e6620003e084620003b7565b620003c1565b620003b7565b9050919050565b6000819050919050565b6200040883620003cb565b620004206200041782620003f3565b84845462000361565b825550505050565b600090565b6200043762000428565b62000444818484620003fd565b505050565b5b818110156200046c57620004606000826200042d565b6001810190506200044a565b5050565b601f821115620004bb5762000485816200032f565b620004908462000344565b81016020851015620004a0578190505b620004b8620004af8562000344565b83018262000449565b50505b505050565b600082821c905092915050565b6000620004e060001984600802620004c0565b1980831691505092915050565b6000620004fb8383620004cd565b9150826002028217905092915050565b6200051682620002c0565b67ffffffffffffffff811115620005325762000531620000d7565b5b6200053e8254620002fa565b6200054b82828562000470565b600060209050601f8311600181146200058357600084156200056e578287015190505b6200057a8582620004ed565b865550620005ea565b601f19841662000593866200032f565b60005b82811015620005bd5784890151825560018201915060208501945060208101905062000596565b86831015620005dd5784890151620005d9601f891682620004cd565b8355505b6001600288020188555050505b505050505050565b613fe280620006026000396000f3fe608060405234801561001057600080fd5b50600436106101585760003560e01c80638132304b116100c3578063bef4876b1161007c578063bef4876b146103f0578063c87b56dd1461040e578063d4342cc71461043e578063dbbb49791461046e578063e767cb02146104a1578063e985e9c5146104d157610158565b80638132304b146103195780639038f4141461034957806395d89b4114610367578063a22cb46514610385578063a6b46a6f146103a1578063b88d4fde146103d457610158565b806342842e0e1161011557806342842e0e1461024357806343bc16121461025f578063510a77b91461027d5780636352211e1461029b57806370a08231146102cb57806378a89567146102fb57610158565b806301ffc9a71461015d57806306fdde031461018d578063081812fc146101ab578063095ea7b3146101db57806323b872dd146101f75780632d02398914610213575b600080fd5b610177600480360381019061017291906129f4565b610501565b6040516101849190612a3c565b60405180910390f35b610195610562565b6040516101a29190612ae7565b60405180910390f35b6101c560048036038101906101c09190612b3f565b6105f4565b6040516101d29190612bad565b60405180910390f35b6101f560048036038101906101f09190612bf4565b61063a565b005b610211600480360381019061020c9190612c34565b610751565b005b61022d60048036038101906102289190612dbc565b6107b1565b60405161023a9190612e43565b60405180910390f35b61025d60048036038101906102589190612c34565b610a66565b005b610267610a86565b6040516102749190612bad565b60405180910390f35b610285610aac565b6040516102929190612e43565b60405180910390f35b6102b560048036038101906102b09190612b3f565b610ab2565b6040516102c29190612bad565b60405180910390f35b6102e560048036038101906102e09190612e5e565b610b38565b6040516102f29190612e43565b60405180910390f35b610303610bef565b6040516103109190612e43565b60405180910390f35b610333600480360381019061032e9190612e8b565b610bf9565b6040516103409190612a3c565b60405180910390f35b610351610dd5565b60405161035e9190612a3c565b60405180910390f35b61036f610e86565b60405161037c9190612ae7565b60405180910390f35b61039f600480360381019061039a9190612ef7565b610f18565b005b6103bb60048036038101906103b69190612b3f565b610f2e565b6040516103cb9493929190612fae565b60405180910390f35b6103ee60048036038101906103e9919061309b565b611013565b005b6103f8611075565b6040516104059190612a3c565b60405180910390f35b61042860048036038101906104239190612b3f565b611088565b6040516104359190612ae7565b60405180910390f35b61045860048036038101906104539190612b3f565b61119a565b60405161046591906131f8565b60405180910390f35b61048860048036038101906104839190612b3f565b6113d8565b6040516104989493929190612fae565b60405180910390f35b6104bb60048036038101906104b69190612e8b565b6114bd565b6040516104c891906131f8565b60405180910390f35b6104eb60048036038101906104e6919061321a565b6116fb565b6040516104f89190612a3c565b60405180910390f35b6000634906490660e01b7bffffffffffffffffffffffffffffffffffffffffffffffffffffffff1916827bffffffffffffffffffffffffffffffffffffffffffffffffffffffff1916148061055b575061055a8261178f565b5b9050919050565b60606000805461057190613289565b80601f016020809104026020016040519081016040528092919081815260200182805461059d90613289565b80156105ea5780601f106105bf576101008083540402835291602001916105ea565b820191906000526020600020905b8154815290600101906020018083116105cd57829003601f168201915b5050505050905090565b60006105ff82611871565b6004600083815260200190815260200160002060009054906101000a900473ffffffffffffffffffffffffffffffffffffffff169050919050565b600061064582610ab2565b90508073ffffffffffffffffffffffffffffffffffffffff168373ffffffffffffffffffffffffffffffffffffffff16036106b5576040517f08c379a00000000000000000000000000000000000000000000000000000000081526004016106ac9061332c565b60405180910390fd5b8073ffffffffffffffffffffffffffffffffffffffff166106d46118bc565b73ffffffffffffffffffffffffffffffffffffffff1614806107035750610702816106fd6118bc565b6116fb565b5b610742576040517f08c379a0000000000000000000000000000000000000000000000000000000008152600401610739906133be565b60405180910390fd5b61074c83836118c4565b505050565b61076261075c6118bc565b8261197d565b6107a1576040517f08c379a000000000000000000000000000000000000000000000000000000000815260040161079890613450565b60405180910390fd5b6107ac838383611a12565b505050565b6000600760019054906101000a900473ffffffffffffffffffffffffffffffffffffffff1673ffffffffffffffffffffffffffffffffffffffff163373ffffffffffffffffffffffffffffffffffffffff1614610843576040517f08c379a000000000000000000000000000000000000000000000000000000000815260040161083a906134e2565b60405180910390fd5b60001515600760009054906101000a900460ff16151514610899576040517f08c379a000000000000000000000000000000000000000000000000000000000815260040161089090613574565b60405180910390fd5b600860008154809291906108ac906135c3565b9190505550600060085490506108c23382611d0b565b6108cc8184611f28565b60006040518060800160405280838152602001600760019054906101000a900473ffffffffffffffffffffffffffffffffffffffff1673ffffffffffffffffffffffffffffffffffffffff1681526020018681526020016000600281111561093757610936612f37565b5b815250905080600a60008481526020019081526020016000206000820151816000015560208201518160010160006101000a81548173ffffffffffffffffffffffffffffffffffffffff021916908373ffffffffffffffffffffffffffffffffffffffff16021790555060408201518160020190816109b691906137b7565b5060608201518160030160006101000a81548160ff021916908360028111156109e2576109e1612f37565b5b021790555090505081600760019054906101000a900473ffffffffffffffffffffffffffffffffffffffff1673ffffffffffffffffffffffffffffffffffffffff167f1c02ada899b41b0bca7f810070ba043c8265dac9c7f8676bc50c62f13be1fa7e86604051610a539190612ae7565b60405180910390a3819250505092915050565b610a8183838360405180602001604052806000815250611013565b505050565b600760019054906101000a900473ffffffffffffffffffffffffffffffffffffffff1681565b60095481565b600080610abe83611fcc565b9050600073ffffffffffffffffffffffffffffffffffffffff168173ffffffffffffffffffffffffffffffffffffffff1603610b2f576040517f08c379a0000000000000000000000000000000000000000000000000000000008152600401610b26906138d5565b60405180910390fd5b80915050919050565b60008073ffffffffffffffffffffffffffffffffffffffff168273ffffffffffffffffffffffffffffffffffffffff1603610ba8576040517f08c379a0000000000000000000000000000000000000000000000000000000008152600401610b9f90613967565b60405180910390fd5b600360008373ffffffffffffffffffffffffffffffffffffffff1673ffffffffffffffffffffffffffffffffffffffff168152602001908152602001600020549050919050565b6000600854905090565b6000600760019054906101000a900473ffffffffffffffffffffffffffffffffffffffff1673ffffffffffffffffffffffffffffffffffffffff163373ffffffffffffffffffffffffffffffffffffffff1614610c8b576040517f08c379a0000000000000000000000000000000000000000000000000000000008152600401610c82906134e2565b60405180910390fd5b60001515600760009054906101000a900460ff16151514610ce1576040517f08c379a0000000000000000000000000000000000000000000000000000000008152600401610cd890613574565b60405180910390fd5b6000610cee846001612009565b905080600b6000858152602001908152602001600020600082015481600001556001820160009054906101000a900473ffffffffffffffffffffffffffffffffffffffff168160010160006101000a81548173ffffffffffffffffffffffffffffffffffffffff021916908373ffffffffffffffffffffffffffffffffffffffff16021790555060028201816002019081610d89919061399d565b506003820160009054906101000a900460ff168160030160006101000a81548160ff02191690836002811115610dc257610dc1612f37565b5b0217905550905050600191505092915050565b6000600760019054906101000a900473ffffffffffffffffffffffffffffffffffffffff1673ffffffffffffffffffffffffffffffffffffffff163373ffffffffffffffffffffffffffffffffffffffff1614610e67576040517f08c379a0000000000000000000000000000000000000000000000000000000008152600401610e5e906134e2565b60405180910390fd5b6001600760006101000a81548160ff0219169083151502179055905090565b606060018054610e9590613289565b80601f0160208091040260200160405190810160405280929190818152602001828054610ec190613289565b8015610f0e5780601f10610ee357610100808354040283529160200191610f0e565b820191906000526020600020905b815481529060010190602001808311610ef157829003601f168201915b5050505050905090565b610f2a610f236118bc565b83836120c3565b5050565b600a6020528060005260406000206000915090508060000154908060010160009054906101000a900473ffffffffffffffffffffffffffffffffffffffff1690806002018054610f7d90613289565b80601f0160208091040260200160405190810160405280929190818152602001828054610fa990613289565b8015610ff65780601f10610fcb57610100808354040283529160200191610ff6565b820191906000526020600020905b815481529060010190602001808311610fd957829003601f168201915b5050505050908060030160009054906101000a900460ff16905084565b61102461101e6118bc565b8361197d565b611063576040517f08c379a000000000000000000000000000000000000000000000000000000000815260040161105a90613450565b60405180910390fd5b61106f8484848461222f565b50505050565b600760009054906101000a900460ff1681565b606061109382611871565b60006006600084815260200190815260200160002080546110b390613289565b80601f01602080910402602001604051908101604052809291908181526020018280546110df90613289565b801561112c5780601f106111015761010080835404028352916020019161112c565b820191906000526020600020905b81548152906001019060200180831161110f57829003601f168201915b50505050509050600061113d61228b565b90506000815103611152578192505050611195565b60008251111561118757808260405160200161116f929190613ac1565b60405160208183030381529060405292505050611195565b611190846122a2565b925050505b919050565b6111a26128db565b600760019054906101000a900473ffffffffffffffffffffffffffffffffffffffff1673ffffffffffffffffffffffffffffffffffffffff163373ffffffffffffffffffffffffffffffffffffffff1614611232576040517f08c379a0000000000000000000000000000000000000000000000000000000008152600401611229906134e2565b60405180910390fd5b60001515600760009054906101000a900460ff16151514611288576040517f08c379a000000000000000000000000000000000000000000000000000000000815260040161127f90613574565b60405180910390fd5b6000611295836002612009565b905080604051806080016040529081600082015481526020016001820160009054906101000a900473ffffffffffffffffffffffffffffffffffffffff1673ffffffffffffffffffffffffffffffffffffffff1673ffffffffffffffffffffffffffffffffffffffff16815260200160028201805461131390613289565b80601f016020809104026020016040519081016040528092919081815260200182805461133f90613289565b801561138c5780601f106113615761010080835404028352916020019161138c565b820191906000526020600020905b81548152906001019060200180831161136f57829003601f168201915b505050505081526020016003820160009054906101000a900460ff1660028111156113ba576113b9612f37565b5b60028111156113cc576113cb612f37565b5b81525050915050919050565b600b6020528060005260406000206000915090508060000154908060010160009054906101000a900473ffffffffffffffffffffffffffffffffffffffff169080600201805461142790613289565b80601f016020809104026020016040519081016040528092919081815260200182805461145390613289565b80156114a05780601f10611475576101008083540402835291602001916114a0565b820191906000526020600020905b81548152906001019060200180831161148357829003601f168201915b5050505050908060030160009054906101000a900460ff16905084565b6114c56128db565b600760019054906101000a900473ffffffffffffffffffffffffffffffffffffffff1673ffffffffffffffffffffffffffffffffffffffff163373ffffffffffffffffffffffffffffffffffffffff1614611555576040517f08c379a000000000000000000000000000000000000000000000000000000000815260040161154c906134e2565b60405180910390fd5b60001515600760009054906101000a900460ff161515146115ab576040517f08c379a00000000000000000000000000000000000000000000000000000000081526004016115a290613574565b60405180910390fd5b60006115b78484612009565b604051806080016040529081600082015481526020016001820160009054906101000a900473ffffffffffffffffffffffffffffffffffffffff1673ffffffffffffffffffffffffffffffffffffffff1673ffffffffffffffffffffffffffffffffffffffff16815260200160028201805461163290613289565b80601f016020809104026020016040519081016040528092919081815260200182805461165e90613289565b80156116ab5780601f10611680576101008083540402835291602001916116ab565b820191906000526020600020905b81548152906001019060200180831161168e57829003601f168201915b505050505081526020016003820160009054906101000a900460ff1660028111156116d9576116d8612f37565b5b60028111156116eb576116ea612f37565b5b8152505090508091505092915050565b6000600560008473ffffffffffffffffffffffffffffffffffffffff1673ffffffffffffffffffffffffffffffffffffffff16815260200190815260200160002060008373ffffffffffffffffffffffffffffffffffffffff1673ffffffffffffffffffffffffffffffffffffffff16815260200190815260200160002060009054906101000a900460ff16905092915050565b60007f80ac58cd000000000000000000000000000000000000000000000000000000007bffffffffffffffffffffffffffffffffffffffffffffffffffffffff1916827bffffffffffffffffffffffffffffffffffffffffffffffffffffffff1916148061185a57507f5b5e139f000000000000000000000000000000000000000000000000000000007bffffffffffffffffffffffffffffffffffffffffffffffffffffffff1916827bffffffffffffffffffffffffffffffffffffffffffffffffffffffff1916145b8061186a57506118698261230a565b5b9050919050565b61187a81612374565b6118b9576040517f08c379a00000000000000000000000000000000000000000000000000000000081526004016118b0906138d5565b60405180910390fd5b50565b600033905090565b816004600083815260200190815260200160002060006101000a81548173ffffffffffffffffffffffffffffffffffffffff021916908373ffffffffffffffffffffffffffffffffffffffff160217905550808273ffffffffffffffffffffffffffffffffffffffff1661193783610ab2565b73ffffffffffffffffffffffffffffffffffffffff167f8c5be1e5ebec7d5bd14f71427d1e84f3dd0314c0f7b2291e5b200ac8c7c3b92560405160405180910390a45050565b60008061198983610ab2565b90508073ffffffffffffffffffffffffffffffffffffffff168473ffffffffffffffffffffffffffffffffffffffff1614806119cb57506119ca81856116fb565b5b80611a0957508373ffffffffffffffffffffffffffffffffffffffff166119f1846105f4565b73ffffffffffffffffffffffffffffffffffffffff16145b91505092915050565b8273ffffffffffffffffffffffffffffffffffffffff16611a3282610ab2565b73ffffffffffffffffffffffffffffffffffffffff1614611a88576040517f08c379a0000000000000000000000000000000000000000000000000000000008152600401611a7f90613b57565b60405180910390fd5b600073ffffffffffffffffffffffffffffffffffffffff168273ffffffffffffffffffffffffffffffffffffffff1603611af7576040517f08c379a0000000000000000000000000000000000000000000000000000000008152600401611aee90613be9565b60405180910390fd5b611b0483838360016123b5565b8273ffffffffffffffffffffffffffffffffffffffff16611b2482610ab2565b73ffffffffffffffffffffffffffffffffffffffff1614611b7a576040517f08c379a0000000000000000000000000000000000000000000000000000000008152600401611b7190613b57565b60405180910390fd5b6004600082815260200190815260200160002060006101000a81549073ffffffffffffffffffffffffffffffffffffffff02191690556001600360008573ffffffffffffffffffffffffffffffffffffffff1673ffffffffffffffffffffffffffffffffffffffff168152602001908152602001600020600082825403925050819055506001600360008473ffffffffffffffffffffffffffffffffffffffff1673ffffffffffffffffffffffffffffffffffffffff16815260200190815260200160002060008282540192505081905550816002600083815260200190815260200160002060006101000a81548173ffffffffffffffffffffffffffffffffffffffff021916908373ffffffffffffffffffffffffffffffffffffffff160217905550808273ffffffffffffffffffffffffffffffffffffffff168473ffffffffffffffffffffffffffffffffffffffff167fddf252ad1be2c89b69c2b068fc378daa952ba7f163c4a11628f55a4df523b3ef60405160405180910390a4611d0683838360016123bb565b505050565b600073ffffffffffffffffffffffffffffffffffffffff168273ffffffffffffffffffffffffffffffffffffffff1603611d7a576040517f08c379a0000000000000000000000000000000000000000000000000000000008152600401611d7190613c55565b60405180910390fd5b611d8381612374565b15611dc3576040517f08c379a0000000000000000000000000000000000000000000000000000000008152600401611dba90613cc1565b60405180910390fd5b611dd16000838360016123b5565b611dda81612374565b15611e1a576040517f08c379a0000000000000000000000000000000000000000000000000000000008152600401611e1190613cc1565b60405180910390fd5b6001600360008473ffffffffffffffffffffffffffffffffffffffff1673ffffffffffffffffffffffffffffffffffffffff16815260200190815260200160002060008282540192505081905550816002600083815260200190815260200160002060006101000a81548173ffffffffffffffffffffffffffffffffffffffff021916908373ffffffffffffffffffffffffffffffffffffffff160217905550808273ffffffffffffffffffffffffffffffffffffffff16600073ffffffffffffffffffffffffffffffffffffffff167fddf252ad1be2c89b69c2b068fc378daa952ba7f163c4a11628f55a4df523b3ef60405160405180910390a4611f246000838360016123bb565b5050565b611f3182612374565b611f70576040517f08c379a0000000000000000000000000000000000000000000000000000000008152600401611f6790613d53565b60405180910390fd5b80600660008481526020019081526020016000209081611f9091906137b7565b507ff8e1a15aba9398e019f0b49df1a4fde98ee17ae345cb5f6b5e2c27f5033e8ce782604051611fc09190612e43565b60405180910390a15050565b60006002600083815260200190815260200160002060009054906101000a900473ffffffffffffffffffffffffffffffffffffffff169050919050565b600080600a60008581526020019081526020016000209050600183036120735760018160030160006101000a81548160ff0219169083600281111561205157612050612f37565b5b021790555060096000815480929190612069906135c3565b91905055506120b9565b6002830361208a57612084846123c1565b506120b8565b60008160030160006101000a81548160ff021916908360028111156120b2576120b1612f37565b5b02179055505b5b8091505092915050565b8173ffffffffffffffffffffffffffffffffffffffff168373ffffffffffffffffffffffffffffffffffffffff1603612131576040517f08c379a000000000000000000000000000000000000000000000000000000000815260040161212890613dbf565b60405180910390fd5b80600560008573ffffffffffffffffffffffffffffffffffffffff1673ffffffffffffffffffffffffffffffffffffffff16815260200190815260200160002060008473ffffffffffffffffffffffffffffffffffffffff1673ffffffffffffffffffffffffffffffffffffffff16815260200190815260200160002060006101000a81548160ff0219169083151502179055508173ffffffffffffffffffffffffffffffffffffffff168373ffffffffffffffffffffffffffffffffffffffff167f17307eab39ab6107e8899845ad3d59bd9653f200f220920489ca2b5937696c31836040516122229190612a3c565b60405180910390a3505050565b61223a848484611a12565b61224684848484612510565b612285576040517f08c379a000000000000000000000000000000000000000000000000000000000815260040161227c90613e51565b60405180910390fd5b50505050565b606060405180602001604052806000815250905090565b60606122ad82611871565b60006122b761228b565b905060008151116122d75760405180602001604052806000815250612302565b806122e184612697565b6040516020016122f2929190613ac1565b6040516020818303038152906040525b915050919050565b60007f01ffc9a7000000000000000000000000000000000000000000000000000000007bffffffffffffffffffffffffffffffffffffffffffffffffffffffff1916827bffffffffffffffffffffffffffffffffffffffffffffffffffffffff1916149050919050565b60008073ffffffffffffffffffffffffffffffffffffffff1661239683611fcc565b73ffffffffffffffffffffffffffffffffffffffff1614159050919050565b50505050565b50505050565b600080600a60008481526020019081526020016000209050600160028111156123ed576123ec612f37565b5b8160030160009054906101000a900460ff16600281111561241157612410612f37565b5b036124da5760005b60095481116124d8578160000154600b600083815260200190815260200160002060000154036124c557600b60008281526020019081526020016000206000808201600090556001820160006101000a81549073ffffffffffffffffffffffffffffffffffffffff0219169055600282016000612496919061292b565b6003820160006101000a81549060ff02191690555050600960008154809291906124bf90613e71565b91905055505b80806124d0906135c3565b915050612419565b505b60028160030160006101000a81548160ff0219169083600281111561250257612501612f37565b5b021790555080915050919050565b60006125318473ffffffffffffffffffffffffffffffffffffffff16612765565b1561268a578373ffffffffffffffffffffffffffffffffffffffff1663150b7a0261255a6118bc565b8786866040518563ffffffff1660e01b815260040161257c9493929190613eef565b6020604051808303816000875af19250505080156125b857506040513d601f19601f820116820180604052508101906125b59190613f50565b60015b61263a573d80600081146125e8576040519150601f19603f3d011682016040523d82523d6000602084013e6125ed565b606091505b506000815103612632576040517f08c379a000000000000000000000000000000000000000000000000000000000815260040161262990613e51565b60405180910390fd5b805181602001fd5b63150b7a0260e01b7bffffffffffffffffffffffffffffffffffffffffffffffffffffffff1916817bffffffffffffffffffffffffffffffffffffffffffffffffffffffff19161491505061268f565b600190505b949350505050565b6060600060016126a684612788565b01905060008167ffffffffffffffff8111156126c5576126c4612c91565b5b6040519080825280601f01601f1916602001820160405280156126f75781602001600182028036833780820191505090505b509050600082602001820190505b60011561275a578080600190039150507f3031323334353637383961626364656600000000000000000000000000000000600a86061a8153600a858161274e5761274d613f7d565b5b04945060008503612705575b819350505050919050565b6000808273ffffffffffffffffffffffffffffffffffffffff163b119050919050565b600080600090507a184f03e93ff9f4daa797ed6e38ed64bf6a1f01000000000000000083106127e6577a184f03e93ff9f4daa797ed6e38ed64bf6a1f01000000000000000083816127dc576127db613f7d565b5b0492506040810190505b6d04ee2d6d415b85acef81000000008310612823576d04ee2d6d415b85acef8100000000838161281957612818613f7d565b5b0492506020810190505b662386f26fc10000831061285257662386f26fc10000838161284857612847613f7d565b5b0492506010810190505b6305f5e100831061287b576305f5e100838161287157612870613f7d565b5b0492506008810190505b61271083106128a057612710838161289657612895613f7d565b5b0492506004810190505b606483106128c357606483816128b9576128b8613f7d565b5b0492506002810190505b600a83106128d2576001810190505b80915050919050565b604051806080016040528060008152602001600073ffffffffffffffffffffffffffffffffffffffff168152602001606081526020016000600281111561292557612924612f37565b5b81525090565b50805461293790613289565b6000825580601f106129495750612968565b601f016020900490600052602060002090810190612967919061296b565b5b50565b5b8082111561298457600081600090555060010161296c565b5090565b6000604051905090565b600080fd5b600080fd5b60007fffffffff0000000000000000000000000000000000000000000000000000000082169050919050565b6129d18161299c565b81146129dc57600080fd5b50565b6000813590506129ee816129c8565b92915050565b600060208284031215612a0a57612a09612992565b5b6000612a18848285016129df565b91505092915050565b60008115159050919050565b612a3681612a21565b82525050565b6000602082019050612a516000830184612a2d565b92915050565b600081519050919050565b600082825260208201905092915050565b60005b83811015612a91578082015181840152602081019050612a76565b60008484015250505050565b6000601f19601f8301169050919050565b6000612ab982612a57565b612ac38185612a62565b9350612ad3818560208601612a73565b612adc81612a9d565b840191505092915050565b60006020820190508181036000830152612b018184612aae565b905092915050565b6000819050919050565b612b1c81612b09565b8114612b2757600080fd5b50565b600081359050612b3981612b13565b92915050565b600060208284031215612b5557612b54612992565b5b6000612b6384828501612b2a565b91505092915050565b600073ffffffffffffffffffffffffffffffffffffffff82169050919050565b6000612b9782612b6c565b9050919050565b612ba781612b8c565b82525050565b6000602082019050612bc26000830184612b9e565b92915050565b612bd181612b8c565b8114612bdc57600080fd5b50565b600081359050612bee81612bc8565b92915050565b60008060408385031215612c0b57612c0a612992565b5b6000612c1985828601612bdf565b9250506020612c2a85828601612b2a565b9150509250929050565b600080600060608486031215612c4d57612c4c612992565b5b6000612c5b86828701612bdf565b9350506020612c6c86828701612bdf565b9250506040612c7d86828701612b2a565b9150509250925092565b600080fd5b600080fd5b7f4e487b7100000000000000000000000000000000000000000000000000000000600052604160045260246000fd5b612cc982612a9d565b810181811067ffffffffffffffff82111715612ce857612ce7612c91565b5b80604052505050565b6000612cfb612988565b9050612d078282612cc0565b919050565b600067ffffffffffffffff821115612d2757612d26612c91565b5b612d3082612a9d565b9050602081019050919050565b82818337600083830152505050565b6000612d5f612d5a84612d0c565b612cf1565b905082815260208101848484011115612d7b57612d7a612c8c565b5b612d86848285612d3d565b509392505050565b600082601f830112612da357612da2612c87565b5b8135612db3848260208601612d4c565b91505092915050565b60008060408385031215612dd357612dd2612992565b5b600083013567ffffffffffffffff811115612df157612df0612997565b5b612dfd85828601612d8e565b925050602083013567ffffffffffffffff811115612e1e57612e1d612997565b5b612e2a85828601612d8e565b9150509250929050565b612e3d81612b09565b82525050565b6000602082019050612e586000830184612e34565b92915050565b600060208284031215612e7457612e73612992565b5b6000612e8284828501612bdf565b91505092915050565b60008060408385031215612ea257612ea1612992565b5b6000612eb085828601612b2a565b9250506020612ec185828601612b2a565b9150509250929050565b612ed481612a21565b8114612edf57600080fd5b50565b600081359050612ef181612ecb565b92915050565b60008060408385031215612f0e57612f0d612992565b5b6000612f1c85828601612bdf565b9250506020612f2d85828601612ee2565b9150509250929050565b7f4e487b7100000000000000000000000000000000000000000000000000000000600052602160045260246000fd5b60038110612f7757612f76612f37565b5b50565b6000819050612f8882612f66565b919050565b6000612f9882612f7a565b9050919050565b612fa881612f8d565b82525050565b6000608082019050612fc36000830187612e34565b612fd06020830186612b9e565b8181036040830152612fe28185612aae565b9050612ff16060830184612f9f565b95945050505050565b600067ffffffffffffffff82111561301557613014612c91565b5b61301e82612a9d565b9050602081019050919050565b600061303e61303984612ffa565b612cf1565b90508281526020810184848401111561305a57613059612c8c565b5b613065848285612d3d565b509392505050565b600082601f83011261308257613081612c87565b5b813561309284826020860161302b565b91505092915050565b600080600080608085870312156130b5576130b4612992565b5b60006130c387828801612bdf565b94505060206130d487828801612bdf565b93505060406130e587828801612b2a565b925050606085013567ffffffffffffffff81111561310657613105612997565b5b6131128782880161306d565b91505092959194509250565b61312781612b09565b82525050565b61313681612b8c565b82525050565b600082825260208201905092915050565b600061315882612a57565b613162818561313c565b9350613172818560208601612a73565b61317b81612a9d565b840191505092915050565b61318f81612f8d565b82525050565b60006080830160008301516131ad600086018261311e565b5060208301516131c0602086018261312d565b50604083015184820360408601526131d8828261314d565b91505060608301516131ed6060860182613186565b508091505092915050565b600060208201905081810360008301526132128184613195565b905092915050565b6000806040838503121561323157613230612992565b5b600061323f85828601612bdf565b925050602061325085828601612bdf565b9150509250929050565b7f4e487b7100000000000000000000000000000000000000000000000000000000600052602260045260246000fd5b600060028204905060018216806132a157607f821691505b6020821081036132b4576132b361325a565b5b50919050565b7f4552433732313a20617070726f76616c20746f2063757272656e74206f776e6560008201527f7200000000000000000000000000000000000000000000000000000000000000602082015250565b6000613316602183612a62565b9150613321826132ba565b604082019050919050565b6000602082019050818103600083015261334581613309565b9050919050565b7f4552433732313a20617070726f76652063616c6c6572206973206e6f7420746f60008201527f6b656e206f776e6572206f7220617070726f76656420666f7220616c6c000000602082015250565b60006133a8603d83612a62565b91506133b38261334c565b604082019050919050565b600060208201905081810360008301526133d78161339b565b9050919050565b7f4552433732313a2063616c6c6572206973206e6f7420746f6b656e206f776e6560008201527f72206f7220617070726f76656400000000000000000000000000000000000000602082015250565b600061343a602d83612a62565b9150613445826133de565b604082019050919050565b600060208201905081810360008301526134698161342d565b9050919050565b7f416c62756d4e46543a204f6e6c79204172746973742063616e2063616c6c206660008201527f756e6374696f6e00000000000000000000000000000000000000000000000000602082015250565b60006134cc602783612a62565b91506134d782613470565b604082019050919050565b600060208201905081810360008301526134fb816134bf565b9050919050565b7f416c62756d4e46543a20616c62756d2070726f64756374696f6e2066696e697360008201527f6865640000000000000000000000000000000000000000000000000000000000602082015250565b600061355e602383612a62565b915061356982613502565b604082019050919050565b6000602082019050818103600083015261358d81613551565b9050919050565b7f4e487b7100000000000000000000000000000000000000000000000000000000600052601160045260246000fd5b60006135ce82612b09565b91507fffffffffffffffffffffffffffffffffffffffffffffffffffffffffffffffff8203613600576135ff613594565b5b600182019050919050565b60008190508160005260206000209050919050565b60006020601f8301049050919050565b600082821b905092915050565b60006008830261366d7fffffffffffffffffffffffffffffffffffffffffffffffffffffffffffffffff82613630565b6136778683613630565b95508019841693508086168417925050509392505050565b6000819050919050565b60006136b46136af6136aa84612b09565b61368f565b612b09565b9050919050565b6000819050919050565b6136ce83613699565b6136e26136da826136bb565b84845461363d565b825550505050565b600090565b6136f76136ea565b6137028184846136c5565b505050565b5b818110156137265761371b6000826136ef565b600181019050613708565b5050565b601f82111561376b5761373c8161360b565b61374584613620565b81016020851015613754578190505b61376861376085613620565b830182613707565b50505b505050565b600082821c905092915050565b600061378e60001984600802613770565b1980831691505092915050565b60006137a7838361377d565b9150826002028217905092915050565b6137c082612a57565b67ffffffffffffffff8111156137d9576137d8612c91565b5b6137e38254613289565b6137ee82828561372a565b600060209050601f831160018114613821576000841561380f578287015190505b613819858261379b565b865550613881565b601f19841661382f8661360b565b60005b8281101561385757848901518255600182019150602085019450602081019050613832565b868310156138745784890151613870601f89168261377d565b8355505b6001600288020188555050505b505050505050565b7f4552433732313a20696e76616c696420746f6b656e2049440000000000000000600082015250565b60006138bf601883612a62565b91506138ca82613889565b602082019050919050565b600060208201905081810360008301526138ee816138b2565b9050919050565b7f4552433732313a2061646472657373207a65726f206973206e6f74206120766160008201527f6c6964206f776e65720000000000000000000000000000000000000000000000602082015250565b6000613951602983612a62565b915061395c826138f5565b604082019050919050565b6000602082019050818103600083015261398081613944565b9050919050565b60008154905061399681613289565b9050919050565b8181036139ab575050613a83565b6139b482613987565b67ffffffffffffffff8111156139cd576139cc612c91565b5b6139d78254613289565b6139e282828561372a565b6000601f831160018114613a1157600084156139ff578287015490505b613a09858261379b565b865550613a7c565b601f198416613a1f8761360b565b9650613a2a8661360b565b60005b82811015613a5257848901548255600182019150600185019450602081019050613a2d565b86831015613a6f5784890154613a6b601f89168261377d565b8355505b6001600288020188555050505b5050505050505b565b600081905092915050565b6000613a9b82612a57565b613aa58185613a85565b9350613ab5818560208601612a73565b80840191505092915050565b6000613acd8285613a90565b9150613ad98284613a90565b91508190509392505050565b7f4552433732313a207472616e736665722066726f6d20696e636f72726563742060008201527f6f776e6572000000000000000000000000000000000000000000000000000000602082015250565b6000613b41602583612a62565b9150613b4c82613ae5565b604082019050919050565b60006020820190508181036000830152613b7081613b34565b9050919050565b7f4552433732313a207472616e7366657220746f20746865207a65726f2061646460008201527f7265737300000000000000000000000000000000000000000000000000000000602082015250565b6000613bd3602483612a62565b9150613bde82613b77565b604082019050919050565b60006020820190508181036000830152613c0281613bc6565b9050919050565b7f4552433732313a206d696e7420746f20746865207a65726f2061646472657373600082015250565b6000613c3f602083612a62565b9150613c4a82613c09565b602082019050919050565b60006020820190508181036000830152613c6e81613c32565b9050919050565b7f4552433732313a20746f6b656e20616c7265616479206d696e74656400000000600082015250565b6000613cab601c83612a62565b9150613cb682613c75565b602082019050919050565b60006020820190508181036000830152613cda81613c9e565b9050919050565b7f45524337323155524953746f726167653a2055524920736574206f66206e6f6e60008201527f6578697374656e7420746f6b656e000000000000000000000000000000000000602082015250565b6000613d3d602e83612a62565b9150613d4882613ce1565b604082019050919050565b60006020820190508181036000830152613d6c81613d30565b9050919050565b7f4552433732313a20617070726f766520746f2063616c6c657200000000000000600082015250565b6000613da9601983612a62565b9150613db482613d73565b602082019050919050565b60006020820190508181036000830152613dd881613d9c565b9050919050565b7f4552433732313a207472616e7366657220746f206e6f6e20455243373231526560008201527f63656976657220696d706c656d656e7465720000000000000000000000000000602082015250565b6000613e3b603283612a62565b9150613e4682613ddf565b604082019050919050565b60006020820190508181036000830152613e6a81613e2e565b9050919050565b6000613e7c82612b09565b915060008203613e8f57613e8e613594565b5b600182039050919050565b600081519050919050565b600082825260208201905092915050565b6000613ec182613e9a565b613ecb8185613ea5565b9350613edb818560208601612a73565b613ee481612a9d565b840191505092915050565b6000608082019050613f046000830187612b9e565b613f116020830186612b9e565b613f1e6040830185612e34565b8181036060830152613f308184613eb6565b905095945050505050565b600081519050613f4a816129c8565b92915050565b600060208284031215613f6657613f65612992565b5b6000613f7484828501613f3b565b91505092915050565b7f4e487b7100000000000000000000000000000000000000000000000000000000600052601260045260246000fdfea26469706673582212204b5a3241bcb6dcdab79cc0676c077a839a1afde5548716ba7c4f2929ad7e797264736f6c63430008120033",
    "linkReferences": {},
    "deployedLinkReferences": {}
}